:020000040800F2
:10000000280800200D0200086502000865020008AB
:100010006502000865020008650200080000000093
:100020000000000000000000000000006502000861
:100030006502000800000000650200086502000873
:1000400065020008650200086502000865020008F4
:100050006502000865020008E5060008210700089F
:100060005D070008650200086502000865020008D7
:1000700065020008650200086502000865020008C4
:1000800065020008650200086502000865020008B4
:1000900065020008650200086502000865020008A4
:1000A0006502000865020008650200086502000894
:1000B0006502000865020008650200086502000884
:1000C0006502000865020008650200086502000874
:1000D0006502000865020008650200086502000864
:1000E0006502000865020008650200086502000854
:1000F0006502000865020008650200086502000844
:100100006502000865020008650200086502000833
:100110006502000865020008650200086502000823
:100120006502000865020008650200086502000813
:100130006502000865020008650200086502000803
:1001400065020008650200086502000865020008F3
:1001500065020008650200086502000865020008E3
:1001600065020008650200086502000865020008D3
:1001700065020008650200086502000865020008C3
:10018000650200086502000890B484B000AF034621
:100190000A46FB711346BB710023FB60BB7903F079
:1001A00003039B000F2202FA03F3FB601649BB799D
:1001B0009B08DBB21846144ABB799B08DBB20233BA
:1001C00052F82320FB68DB431A40831C41F82320AC
:1001D0000D48BB799B08DBB21C460B4ABB799B08D8
:1001E000DBB2023352F82320F979BB7903F0030321
:1001F0009B0001FA03F31A43A31C40F82320103795
:10020000BD4690BC704700BF0038014080B582B049
:1002100000AF0F4B7B600F4B3B6007E03B681A1D44
:100220003A607A68111D796012681A603B680A4A60
:100230009342F3D309480A494FF000028842B8BFFD
:1002400040F8042BFADB00F011F80837BD4680BDFA
:10025000C009000800000020140000201400002045
:100260002800002080B400AFFEE700BF80B500AFDB
:1002700000F0C4F800F0EEF800F0E2F9FEE700BF8D
:1002800080B483B000AF78600B46FB70FB78002B26
:1002900006D00949084B1A6B7B6813430B6306E0D1
:1002A0000549054B1A6B7B68DB4313400B630C3726
:1002B000BD465DF8047B70470038024080B487B0CB
:1002C00000AF7860396000237B6100233B6100232D
:1002D000FB6000237B6176E07B69012202FA03F375
:1002E0003B613B681A683B691340FB60FA683B69F5
:1002F0009A4265D17B681A687B695B0019460323C3
:100300008B40DB431A407B681A607B681A683B6845
:100310001B7919467B695B0001FA03F31A437B687A
:100320001A603B681B79012B03D03B681B79022BB9
:100330002ED17B689A687B695B00194603238B404A
:10034000DB431A407B689A607B689A683B685B79FC
:1003500019467B695B0001FA03F31A437B689A60D4
:100360007B685A687B699BB2194601238B40DB434B
:100370001A407B685A607B685B683A6892791146DC
:100380007A6992B201FA02F292B21A437B685A6019
:100390007B68DA687B699BB25B00032101FA03F397
:1003A000DB431A407B68DA607B68DA683B68DB799C
:1003B00019467B695B0001FA03F31A437B68DA6034
:1003C0007B6901337B617B690F2B85D91C37BD4667
:1003D0005DF8047B704700BF80B483B000AF7860E5
:1003E0000B467B807B685A697B885A407B685A61E0
:1003F0000C37BD465DF8047B704700BF80B500AF89
:10040000114A114B1B6843F0010313600E4B00228D
:100410009A600D4A0C4B1B6823F0847323F48033DD
:100420001360094B094A5A60074A074B1B6823F4BB
:1004300080231360044B0022DA6000F087F8044B3D
:100440004FF000629A6080BD0038024010300024F6
:1004500000ED00E080B487B000AF00233B610023D3
:100460007B610223FB600023BB6002237B60324B75
:100470009B6803F00C033B613B69042B07D0082BFE
:1004800009D0002B3FD12D4B2D4A1A603FE02B4B5A
:100490002C4A1A603BE0284B5B6803F480039B0DF9
:1004A000BB60254B5B6803F03F037B60BB68002BA0
:1004B0000DD0244A7B68B2FBF3F21F4B596847F614
:1004C000C0730B409B0903FB02F37B610CE01C4AE9
:1004D0007B68B2FBF3F2184B596847F6C0730B40C8
:1004E0009B0903FB02F37B61134B5B6803F440330E
:1004F0001B0C01335B00FB607A69FB68B2FBF3F312
:100500000E4A136003E00D4B0D4A1A6000BF0A4B00
:100510009B6803F0F0031B090B4AD35CDBB23B6121
:10052000064B1A683B6922FA03F3044A13601C372E
:10053000BD465DF8047B7047003802400000002093
:100540000024F40040787D010400002080B483B0D2
:1005500000AF00237B6000233B60354A344B1B68AF
:1005600043F480331360324B1B6803F400333B6069
:100570007B6801337B603B68002B03D17B68B3F55C
:10058000A06FF0D12A4B1B6803F40033002B02D07C
:1005900001233B6001E000233B603B68012B42D11B
:1005A000234A234B1B6C43F080531364214A214B95
:1005B0001B6843F4804313601D4A1D4B9B68936086
:1005C0001B4A1B4B9B6843F400439360184A184B2B
:1005D0009B6843F4A0539360154B174A5A60144A22
:1005E000134B1B6843F08073136000BF104B1B68F4
:1005F00003F00073002BF9D0104B40F205621A6033
:100600000B4A0B4B9B6823F003039360084A084B8B
:100610009B6843F00203936000BF054B9B6803F0A7
:100620000C03082BF9D10C37BD465DF8047B7047ED
:10063000003802400070004019544007003C02405E
:1006400080B584B000AF08200121FFF719FE224BCE
:100650004FF480521A60204B01221A711E4B002267
:100660009A711D4B03225A711B4B0022DA711B48F1
:100670001949FFF723FE184B01221A60164B00227E
:100680001A71154B00229A71134B03225A71124BA7
:100690000022DA7112481049FFF710FE06233B735F
:1006A00000237B730023BB730123FB7307F10C034F
:1006B000184600F025F901237B6000233B721023CC
:1006C0007B720123BB723B1D184600F075F80020B9
:1006D0000021FFF759FDFEE720000020000C02403A
:1006E0000000024080B500AF012000F0D7F80346BB
:1006F000002B0DD0074800F04FF8074B01221A607D
:1007000006484FF48051FFF767FE012000F0EAF839
:1007100080BD00BFA086010014000020000C024034
:1007200080B500AF022000F0B9F80346002B0DD0D1
:10073000074800F031F8074B01221A6006484FF4D1
:100740000051FFF749FE022000F0CCF880BD00BF49
:10075000A086010018000020000C024080B500AF08
:10076000042000F09BF80346002B0DD0074800F052
:1007700013F8074B01221A6006484FF48041FFF737
:100780002BFE042000F0AEF880BD00BFA086010063
:100790001C000020000C024080B483B000AF7860E1
:1007A00000BF7B685A1E7A60002BFAD10C37BD4619
:1007B0005DF8047B704700BF80B485B000AF7860FF
:1007C0000023FB60344BFB607B689B79002B4FD090
:1007D0003149314B1A687B681B68DB4313400B605F
:1007E0002D492D4B5A687B681B68DB4313404B60D7
:1007F0007B681B791A46FB681344FB60FB68FA6848
:1008000011687A6812680A431A602349224B9A6871
:100810007B681B68DB4313408B601F491E4BDA6803
:100820007B681B68DB431340CB607B685B79102BD4
:100830000ED11949184B9A687B681B6813438B606B
:100840001549154BDA687B681B681343CB601DE0C4
:10085000114BFB607B685B791A46FB681344FB60B5
:10086000FB68FA6811687A6812680A431A600DE03A
:100870007B681B791A46FB681344FB60FB68FA68C7
:1008800011687A681268D2430A401A601437BD466C
:100890005DF8047B704700BF003C014080B485B028
:1008A00000AF78600023FB730023BB600C4B1A6819
:1008B0007B681340BB600A4B5A697B681340002B6E
:1008C00005D0BB68002B02D00123FB7301E000239D
:1008D000FB73FB7B18461437BD465DF8047B7047FD
:1008E000003C014080B483B000AF7860034A7B686D
:1008F00053610C37BD465DF8047B7047003C0140F6
:1009000080B485B000AF78600023FB730023BB7315
:100910000F237B737B68DB78002B38D0264BDB689A
:10092000DB4303F4E0631B0AFB73FB7BC3F10403AB
:10093000BB737A7BFB7B42FA03F37B737B685B7848
:100940001A46BB7B02FA03F3FB737B689A787B7BC6
:100950001340DAB2FB7B1343FB73FB7B1B01FB737E
:10096000164A7B681B781344FA7B83F80023134AEA
:100970007B681B785B09DBB218467B681B7803F049
:100980001F03012101FA03F342F820300FE00B4965
:100990007B681B785B09DBB218467B681B7803F029
:1009A0001F0301229A4000F1200341F8232014374D
:1009B000BD465DF8047B704700ED00E000E100E01B
:1009C000007A030A00000000000000000102030496
:0409D0000607080905
:0400000508000000EF
:00000001FF
